{
  "_format": "hh-sol-artifact-1",
  "contractName": "CoinFlip",
  "sourceName": "contracts/CoinFlip.sol",
  "abi": [
    {
      "inputs": [],
      "stateMutability": "payable",
      "type": "constructor"
    },
    {
      "anonymous": false,
      "inputs": [
        {
          "indexed": false,
          "internalType": "uint256",
          "name": "requestId",
          "type": "uint256"
        }
      ],
      "name": "CoinFlipRequest",
      "type": "event"
    },
    {
      "anonymous": false,
      "inputs": [
        {
          "indexed": false,
          "internalType": "uint256",
          "name": "requestId",
          "type": "uint256"
        },
        {
          "indexed": false,
          "internalType": "bool",
          "name": "didWin",
          "type": "bool"
        }
      ],
      "name": "CoinFlipResult",
      "type": "event"
    },
    {
      "anonymous": false,
      "inputs": [
        {
          "indexed": true,
          "internalType": "address",
          "name": "from",
          "type": "address"
        },
        {
          "indexed": true,
          "internalType": "address",
          "name": "to",
          "type": "address"
        }
      ],
      "name": "OwnershipTransferRequested",
      "type": "event"
    },
    {
      "anonymous": false,
      "inputs": [
        {
          "indexed": true,
          "internalType": "address",
          "name": "from",
          "type": "address"
        },
        {
          "indexed": true,
          "internalType": "address",
          "name": "to",
          "type": "address"
        }
      ],
      "name": "OwnershipTransferred",
      "type": "event"
    },
    {
      "inputs": [],
      "name": "acceptOwnership",
      "outputs": [],
      "stateMutability": "nonpayable",
      "type": "function"
    },
    {
      "inputs": [],
      "name": "depositETH",
      "outputs": [],
      "stateMutability": "payable",
      "type": "function"
    },
    {
      "inputs": [
        {
          "internalType": "enum CoinFlip.CoinFlipSelection",
          "name": "choice",
          "type": "uint8"
        }
      ],
      "name": "flipACoin",
      "outputs": [
        {
          "internalType": "uint256",
          "name": "",
          "type": "uint256"
        }
      ],
      "stateMutability": "payable",
      "type": "function"
    },
    {
      "inputs": [
        {
          "internalType": "uint256",
          "name": "requestId",
          "type": "uint256"
        }
      ],
      "name": "getStatus",
      "outputs": [
        {
          "components": [
            {
              "internalType": "uint256",
              "name": "fees",
              "type": "uint256"
            },
            {
              "internalType": "uint256",
              "name": "randomWord",
              "type": "uint256"
            },
            {
              "internalType": "address",
              "name": "player",
              "type": "address"
            },
            {
              "internalType": "bool",
              "name": "didWin",
              "type": "bool"
            },
            {
              "internalType": "bool",
              "name": "fulfilled",
              "type": "bool"
            },
            {
              "internalType": "enum CoinFlip.CoinFlipSelection",
              "name": "choice",
              "type": "uint8"
            }
          ],
          "internalType": "struct CoinFlip.CoinFlipStatus",
          "name": "",
          "type": "tuple"
        }
      ],
      "stateMutability": "view",
      "type": "function"
    },
    {
      "inputs": [],
      "name": "owner",
      "outputs": [
        {
          "internalType": "address",
          "name": "",
          "type": "address"
        }
      ],
      "stateMutability": "view",
      "type": "function"
    },
    {
      "inputs": [
        {
          "internalType": "uint256",
          "name": "_requestId",
          "type": "uint256"
        },
        {
          "internalType": "uint256[]",
          "name": "_randomWords",
          "type": "uint256[]"
        }
      ],
      "name": "rawFulfillRandomWords",
      "outputs": [],
      "stateMutability": "nonpayable",
      "type": "function"
    },
    {
      "inputs": [
        {
          "internalType": "uint256",
          "name": "",
          "type": "uint256"
        }
      ],
      "name": "statuses",
      "outputs": [
        {
          "internalType": "uint256",
          "name": "fees",
          "type": "uint256"
        },
        {
          "internalType": "uint256",
          "name": "randomWord",
          "type": "uint256"
        },
        {
          "internalType": "address",
          "name": "player",
          "type": "address"
        },
        {
          "internalType": "bool",
          "name": "didWin",
          "type": "bool"
        },
        {
          "internalType": "bool",
          "name": "fulfilled",
          "type": "bool"
        },
        {
          "internalType": "enum CoinFlip.CoinFlipSelection",
          "name": "choice",
          "type": "uint8"
        }
      ],
      "stateMutability": "view",
      "type": "function"
    },
    {
      "inputs": [
        {
          "internalType": "address",
          "name": "to",
          "type": "address"
        }
      ],
      "name": "transferOwnership",
      "outputs": [],
      "stateMutability": "nonpayable",
      "type": "function"
    },
    {
      "inputs": [],
      "name": "withdrawETH",
      "outputs": [],
      "stateMutability": "nonpayable",
      "type": "function"
    },
    {
      "inputs": [],
      "name": "withdrawLink",
      "outputs": [],
      "stateMutability": "nonpayable",
      "type": "function"
    }
  ],
  "bytecode": "0x60c06040523380600073779877a7b0d9e8603169ddbd7836e478b462478973ab18414cd93297b0d12ac29e63ca20f515b3db468173ffffffffffffffffffffffffffffffffffffffff1660808173ffffffffffffffffffffffffffffffffffffffff16815250508073ffffffffffffffffffffffffffffffffffffffff1660a08173ffffffffffffffffffffffffffffffffffffffff16815250505050600073ffffffffffffffffffffffffffffffffffffffff168273ffffffffffffffffffffffffffffffffffffffff16036200010e576040517f08c379a000000000000000000000000000000000000000000000000000000000815260040162000105906200032e565b60405180910390fd5b816000806101000a81548173ffffffffffffffffffffffffffffffffffffffff021916908373ffffffffffffffffffffffffffffffffffffffff160217905550600073ffffffffffffffffffffffffffffffffffffffff168173ffffffffffffffffffffffffffffffffffffffff1614620001955762000194816200019e60201b60201c565b5b505050620003c2565b3373ffffffffffffffffffffffffffffffffffffffff168173ffffffffffffffffffffffffffffffffffffffff16036200020f576040517f08c379a00000000000000000000000000000000000000000000000000000000081526004016200020690620003a0565b60405180910390fd5b80600160006101000a81548173ffffffffffffffffffffffffffffffffffffffff021916908373ffffffffffffffffffffffffffffffffffffffff1602179055508073ffffffffffffffffffffffffffffffffffffffff1660008054906101000a900473ffffffffffffffffffffffffffffffffffffffff1673ffffffffffffffffffffffffffffffffffffffff167fed8889f560326eb138920d842192f0eb3dd22b4f139c87a2c57538e05bae127860405160405180910390a350565b600082825260208201905092915050565b7f43616e6e6f7420736574206f776e657220746f207a65726f0000000000000000600082015250565b600062000316601883620002cd565b91506200032382620002de565b602082019050919050565b60006020820190508181036000830152620003498162000307565b9050919050565b7f43616e6e6f74207472616e7366657220746f2073656c66000000000000000000600082015250565b600062000388601783620002cd565b9150620003958262000350565b602082019050919050565b60006020820190508181036000830152620003bb8162000379565b9050919050565b60805160a051611ccd62000404600039600081816102130152818161031301528181610d2c01528181610d4d0152610e6d01526000610cf00152611ccd6000f3fe6080604052600436106100915760003560e01c80638dc654a2116100595780638dc654a21461016e578063e086e5ec14610185578063e67b932c1461019c578063f2fde38b146101de578063f6326fb31461020757610091565b80631fe543e3146100965780634d8d05de146100bf5780635c622a0e146100ef57806379ba50971461012c5780638da5cb5b14610143575b600080fd5b3480156100a257600080fd5b506100bd60048036038101906100b891906112c4565b610211565b005b6100d960048036038101906100d49190611345565b6102ad565b6040516100e69190611381565b60405180910390f35b3480156100fb57600080fd5b506101166004803603810190610111919061139c565b61051f565b6040516101239190611526565b60405180910390f35b34801561013857600080fd5b50610141610627565b005b34801561014f57600080fd5b506101586107bc565b6040516101659190611550565b60405180910390f35b34801561017a57600080fd5b506101836107e5565b005b34801561019157600080fd5b5061019a61093f565b005b3480156101a857600080fd5b506101c360048036038101906101be919061139c565b610990565b6040516101d596959493929190611589565b60405180910390f35b3480156101ea57600080fd5b5061020560048036038101906102009190611616565b610a13565b005b61020f610a27565b005b7f000000000000000000000000000000000000000000000000000000000000000073ffffffffffffffffffffffffffffffffffffffff163373ffffffffffffffffffffffffffffffffffffffff161461029f576040517f08c379a0000000000000000000000000000000000000000000000000000000008152600401610296906116a0565b60405180910390fd5b6102a98282610a78565b5050565b6000473411156102f2576040517f08c379a00000000000000000000000000000000000000000000000000000000081526004016102e99061170c565b60405180910390fd5b6000610304620f424060036001610cec565b90506040518060c001604052807f000000000000000000000000000000000000000000000000000000000000000073ffffffffffffffffffffffffffffffffffffffff16634306d354620f42406040518263ffffffff1660e01b815260040161036d919061174b565b602060405180830381865afa15801561038a573d6000803e3d6000fd5b505050506040513d601f19601f820116820180604052508101906103ae919061177b565b8152602001600081526020013373ffffffffffffffffffffffffffffffffffffffff1681526020016000151581526020016000151581526020018460018111156103fb576103fa611434565b5b81525060026000838152602001908152602001600020600082015181600001556020820151816001015560408201518160020160006101000a81548173ffffffffffffffffffffffffffffffffffffffff021916908373ffffffffffffffffffffffffffffffffffffffff16021790555060608201518160020160146101000a81548160ff02191690831515021790555060808201518160020160156101000a81548160ff02191690831515021790555060a08201518160020160166101000a81548160ff021916908360018111156104d7576104d6611434565b5b02179055509050507fc717121f790f1962df8bdfbee9885b81f91725243973dc7cd7c7976f29d4591b8160405161050e9190611381565b60405180910390a180915050919050565b6105276110bf565b600260008381526020019081526020016000206040518060c001604052908160008201548152602001600182015481526020016002820160009054906101000a900473ffffffffffffffffffffffffffffffffffffffff1673ffffffffffffffffffffffffffffffffffffffff1673ffffffffffffffffffffffffffffffffffffffff1681526020016002820160149054906101000a900460ff161515151581526020016002820160159054906101000a900460ff161515151581526020016002820160169054906101000a900460ff16600181111561060a57610609611434565b5b600181111561061c5761061b611434565b5b815250509050919050565b600160009054906101000a900473ffffffffffffffffffffffffffffffffffffffff1673ffffffffffffffffffffffffffffffffffffffff163373ffffffffffffffffffffffffffffffffffffffff16146106b7576040517f08c379a00000000000000000000000000000000000000000000000000000000081526004016106ae906117f4565b60405180910390fd5b60008060009054906101000a900473ffffffffffffffffffffffffffffffffffffffff169050336000806101000a81548173ffffffffffffffffffffffffffffffffffffffff021916908373ffffffffffffffffffffffffffffffffffffffff1602179055506000600160006101000a81548173ffffffffffffffffffffffffffffffffffffffff021916908373ffffffffffffffffffffffffffffffffffffffff1602179055503373ffffffffffffffffffffffffffffffffffffffff168173ffffffffffffffffffffffffffffffffffffffff167f8be0079c531659141344cd1fd0a4f28419497f9722a3daafe3b4186f6b6457e060405160405180910390a350565b60008060009054906101000a900473ffffffffffffffffffffffffffffffffffffffff16905090565b6107ed610f03565b600073779877a7b0d9e8603169ddbd7836e478b462478990508073ffffffffffffffffffffffffffffffffffffffff1663a9059cbb338373ffffffffffffffffffffffffffffffffffffffff166370a08231306040518263ffffffff1660e01b815260040161085c9190611550565b602060405180830381865afa158015610879573d6000803e3d6000fd5b505050506040513d601f19601f8201168201806040525081019061089d919061177b565b6040518363ffffffff1660e01b81526004016108ba929190611814565b6020604051808303816000875af11580156108d9573d6000803e3d6000fd5b505050506040513d601f19601f820116820180604052508101906108fd9190611869565b61093c576040517f08c379a0000000000000000000000000000000000000000000000000000000008152600401610933906118e2565b60405180910390fd5b50565b610947610f03565b3373ffffffffffffffffffffffffffffffffffffffff166108fc479081150290604051600060405180830381858888f1935050505015801561098d573d6000803e3d6000fd5b50565b60026020528060005260406000206000915090508060000154908060010154908060020160009054906101000a900473ffffffffffffffffffffffffffffffffffffffff16908060020160149054906101000a900460ff16908060020160159054906101000a900460ff16908060020160169054906101000a900460ff16905086565b610a1b610f03565b610a2481610f93565b50565b610a2f610f03565b3073ffffffffffffffffffffffffffffffffffffffff166108fc349081150290604051600060405180830381858888f19350505050158015610a75573d6000803e3d6000fd5b50565b6000600260008481526020019081526020016000206000015411610ad1576040517f08c379a0000000000000000000000000000000000000000000000000000000008152600401610ac89061194e565b60405180910390fd5b60016002600084815260200190815260200160002060020160156101000a81548160ff02191690831515021790555080600081518110610b1457610b1361196e565b5b60200260200101516002600084815260200190815260200160002060010181905550600080600283600081518110610b4f57610b4e61196e565b5b6020026020010151610b6191906119cc565b03610b6b57600190505b806001811115610b7e57610b7d611434565b5b6002600085815260200190815260200160002060020160169054906101000a900460ff166001811115610bb457610bb3611434565b5b03610c8b5760016002600085815260200190815260200160002060020160146101000a81548160ff0219169083151502179055506002600084815260200190815260200160002060020160009054906101000a900473ffffffffffffffffffffffffffffffffffffffff1673ffffffffffffffffffffffffffffffffffffffff166108fc600266038d7ea4c68000610c4c9190611a48565b6fffffffffffffffffffffffffffffffff169081150290604051600060405180830381858888f19350505050158015610c89573d6000803e3d6000fd5b505b7ffc4ec7c57358245b234720f395988d6a69c2d9317f88f5ec658dc829e2385b19836002600086815260200190815260200160002060020160149054906101000a900460ff16604051610cdf929190611a85565b60405180910390a1505050565b60007f000000000000000000000000000000000000000000000000000000000000000073ffffffffffffffffffffffffffffffffffffffff16634000aea07f00000000000000000000000000000000000000000000000000000000000000007f000000000000000000000000000000000000000000000000000000000000000073ffffffffffffffffffffffffffffffffffffffff16634306d354886040518263ffffffff1660e01b8152600401610da4919061174b565b602060405180830381865afa158015610dc1573d6000803e3d6000fd5b505050506040513d601f19601f82011682018060405250810190610de5919061177b565b878787604051602001610dfa93929190611acb565b6040516020818303038152906040526040518463ffffffff1660e01b8152600401610e2793929190611b81565b6020604051808303816000875af1158015610e46573d6000803e3d6000fd5b505050506040513d601f19601f82011682018060405250810190610e6a9190611869565b507f000000000000000000000000000000000000000000000000000000000000000073ffffffffffffffffffffffffffffffffffffffff1663fc2a88c36040518163ffffffff1660e01b8152600401602060405180830381865afa158015610ed6573d6000803e3d6000fd5b505050506040513d601f19601f82011682018060405250810190610efa919061177b565b90509392505050565b60008054906101000a900473ffffffffffffffffffffffffffffffffffffffff1673ffffffffffffffffffffffffffffffffffffffff163373ffffffffffffffffffffffffffffffffffffffff1614610f91576040517f08c379a0000000000000000000000000000000000000000000000000000000008152600401610f8890611c0b565b60405180910390fd5b565b3373ffffffffffffffffffffffffffffffffffffffff168173ffffffffffffffffffffffffffffffffffffffff1603611001576040517f08c379a0000000000000000000000000000000000000000000000000000000008152600401610ff890611c77565b60405180910390fd5b80600160006101000a81548173ffffffffffffffffffffffffffffffffffffffff021916908373ffffffffffffffffffffffffffffffffffffffff1602179055508073ffffffffffffffffffffffffffffffffffffffff1660008054906101000a900473ffffffffffffffffffffffffffffffffffffffff1673ffffffffffffffffffffffffffffffffffffffff167fed8889f560326eb138920d842192f0eb3dd22b4f139c87a2c57538e05bae127860405160405180910390a350565b6040518060c001604052806000815260200160008152602001600073ffffffffffffffffffffffffffffffffffffffff1681526020016000151581526020016000151581526020016000600181111561111b5761111a611434565b5b81525090565b6000604051905090565b600080fd5b600080fd5b6000819050919050565b61114881611135565b811461115357600080fd5b50565b6000813590506111658161113f565b92915050565b600080fd5b6000601f19601f8301169050919050565b7f4e487b7100000000000000000000000000000000000000000000000000000000600052604160045260246000fd5b6111b982611170565b810181811067ffffffffffffffff821117156111d8576111d7611181565b5b80604052505050565b60006111eb611121565b90506111f782826111b0565b919050565b600067ffffffffffffffff82111561121757611216611181565b5b602082029050602081019050919050565b600080fd5b600061124061123b846111fc565b6111e1565b9050808382526020820190506020840283018581111561126357611262611228565b5b835b8181101561128c57806112788882611156565b845260208401935050602081019050611265565b5050509392505050565b600082601f8301126112ab576112aa61116b565b5b81356112bb84826020860161122d565b91505092915050565b600080604083850312156112db576112da61112b565b5b60006112e985828601611156565b925050602083013567ffffffffffffffff81111561130a57611309611130565b5b61131685828601611296565b9150509250929050565b6002811061132d57600080fd5b50565b60008135905061133f81611320565b92915050565b60006020828403121561135b5761135a61112b565b5b600061136984828501611330565b91505092915050565b61137b81611135565b82525050565b60006020820190506113966000830184611372565b92915050565b6000602082840312156113b2576113b161112b565b5b60006113c084828501611156565b91505092915050565b6113d281611135565b82525050565b600073ffffffffffffffffffffffffffffffffffffffff82169050919050565b6000611403826113d8565b9050919050565b611413816113f8565b82525050565b60008115159050919050565b61142e81611419565b82525050565b7f4e487b7100000000000000000000000000000000000000000000000000000000600052602160045260246000fd5b6002811061147457611473611434565b5b50565b600081905061148582611463565b919050565b600061149582611477565b9050919050565b6114a58161148a565b82525050565b60c0820160008201516114c160008501826113c9565b5060208201516114d460208501826113c9565b5060408201516114e7604085018261140a565b5060608201516114fa6060850182611425565b50608082015161150d6080850182611425565b5060a082015161152060a085018261149c565b50505050565b600060c08201905061153b60008301846114ab565b92915050565b61154a816113f8565b82525050565b60006020820190506115656000830184611541565b92915050565b61157481611419565b82525050565b6115838161148a565b82525050565b600060c08201905061159e6000830189611372565b6115ab6020830188611372565b6115b86040830187611541565b6115c5606083018661156b565b6115d2608083018561156b565b6115df60a083018461157a565b979650505050505050565b6115f3816113f8565b81146115fe57600080fd5b50565b600081359050611610816115ea565b92915050565b60006020828403121561162c5761162b61112b565b5b600061163a84828501611601565b91505092915050565b600082825260208201905092915050565b7f6f6e6c792056524620563220777261707065722063616e2066756c66696c6c00600082015250565b600061168a601f83611643565b915061169582611654565b602082019050919050565b600060208201905081810360008301526116b98161167d565b9050919050565b7f4e6f7420656e6f7567682062616c616e63650000000000000000000000000000600082015250565b60006116f6601283611643565b9150611701826116c0565b602082019050919050565b60006020820190508181036000830152611725816116e9565b9050919050565b600063ffffffff82169050919050565b6117458161172c565b82525050565b6000602082019050611760600083018461173c565b92915050565b6000815190506117758161113f565b92915050565b6000602082840312156117915761179061112b565b5b600061179f84828501611766565b91505092915050565b7f4d7573742062652070726f706f736564206f776e657200000000000000000000600082015250565b60006117de601683611643565b91506117e9826117a8565b602082019050919050565b6000602082019050818103600083015261180d816117d1565b9050919050565b60006040820190506118296000830185611541565b6118366020830184611372565b9392505050565b61184681611419565b811461185157600080fd5b50565b6000815190506118638161183d565b92915050565b60006020828403121561187f5761187e61112b565b5b600061188d84828501611854565b91505092915050565b7f556e61626c6520746f207472616e736665720000000000000000000000000000600082015250565b60006118cc601283611643565b91506118d782611896565b602082019050919050565b600060208201905081810360008301526118fb816118bf565b9050919050565b7f5265717565737420494420646f6573206e6f7420657869737400000000000000600082015250565b6000611938601983611643565b915061194382611902565b602082019050919050565b600060208201905081810360008301526119678161192b565b9050919050565b7f4e487b7100000000000000000000000000000000000000000000000000000000600052603260045260246000fd5b7f4e487b7100000000000000000000000000000000000000000000000000000000600052601260045260246000fd5b60006119d782611135565b91506119e283611135565b9250826119f2576119f161199d565b5b828206905092915050565b60006fffffffffffffffffffffffffffffffff82169050919050565b7f4e487b7100000000000000000000000000000000000000000000000000000000600052601160045260246000fd5b6000611a53826119fd565b9150611a5e836119fd565b9250828202611a6c816119fd565b9150808214611a7e57611a7d611a19565b5b5092915050565b6000604082019050611a9a6000830185611372565b611aa7602083018461156b565b9392505050565b600061ffff82169050919050565b611ac581611aae565b82525050565b6000606082019050611ae0600083018661173c565b611aed6020830185611abc565b611afa604083018461173c565b949350505050565b600081519050919050565b600082825260208201905092915050565b60005b83811015611b3c578082015181840152602081019050611b21565b60008484015250505050565b6000611b5382611b02565b611b5d8185611b0d565b9350611b6d818560208601611b1e565b611b7681611170565b840191505092915050565b6000606082019050611b966000830186611541565b611ba36020830185611372565b8181036040830152611bb58184611b48565b9050949350505050565b7f4f6e6c792063616c6c61626c65206279206f776e657200000000000000000000600082015250565b6000611bf5601683611643565b9150611c0082611bbf565b602082019050919050565b60006020820190508181036000830152611c2481611be8565b9050919050565b7f43616e6e6f74207472616e7366657220746f2073656c66000000000000000000600082015250565b6000611c61601783611643565b9150611c6c82611c2b565b602082019050919050565b60006020820190508181036000830152611c9081611c54565b905091905056fea2646970667358221220db6168b2ae43c9e1e91b7dc5d67a6dc18d2b08e6ef6ffd745094e0d6722ed2a064736f6c63430008130033",
  "linkReferences": {},
  "deployedLinkReferences": {}
}